{
  "contractName": "final_proj",
  "abi": [
    {
      "inputs": [],
      "payable": false,
      "stateMutability": "nonpayable",
      "type": "constructor"
    },
    {
      "anonymous": false,
      "inputs": [
        {
          "indexed": true,
          "internalType": "uint256",
          "name": "_candidateId",
          "type": "uint256"
        }
      ],
      "name": "votedEvent",
      "type": "event"
    },
    {
      "constant": true,
      "inputs": [
        {
          "internalType": "uint256",
          "name": "",
          "type": "uint256"
        }
      ],
      "name": "candidates",
      "outputs": [
        {
          "internalType": "uint256",
          "name": "id",
          "type": "uint256"
        },
        {
          "internalType": "string",
          "name": "name",
          "type": "string"
        },
        {
          "internalType": "string",
          "name": "constituency",
          "type": "string"
        },
        {
          "internalType": "string",
          "name": "party",
          "type": "string"
        },
        {
          "internalType": "uint256",
          "name": "voteCount",
          "type": "uint256"
        }
      ],
      "payable": false,
      "stateMutability": "view",
      "type": "function"
    },
    {
      "constant": true,
      "inputs": [],
      "name": "candidatesCount",
      "outputs": [
        {
          "internalType": "uint256",
          "name": "",
          "type": "uint256"
        }
      ],
      "payable": false,
      "stateMutability": "view",
      "type": "function"
    },
    {
      "constant": true,
      "inputs": [
        {
          "internalType": "address",
          "name": "",
          "type": "address"
        }
      ],
      "name": "voters",
      "outputs": [
        {
          "internalType": "bool",
          "name": "",
          "type": "bool"
        }
      ],
      "payable": false,
      "stateMutability": "view",
      "type": "function"
    },
    {
      "constant": false,
      "inputs": [
        {
          "internalType": "string",
          "name": "_name",
          "type": "string"
        },
        {
          "internalType": "string",
          "name": "_cons",
          "type": "string"
        },
        {
          "internalType": "string",
          "name": "_party",
          "type": "string"
        }
      ],
      "name": "addCandidate",
      "outputs": [],
      "payable": false,
      "stateMutability": "nonpayable",
      "type": "function"
    },
    {
      "constant": false,
      "inputs": [
        {
          "internalType": "uint256",
          "name": "id",
          "type": "uint256"
        }
      ],
      "name": "vote",
      "outputs": [
        {
          "internalType": "string",
          "name": "",
          "type": "string"
        }
      ],
      "payable": false,
      "stateMutability": "nonpayable",
      "type": "function"
    },
    {
      "constant": false,
      "inputs": [
        {
          "internalType": "uint256",
          "name": "id",
          "type": "uint256"
        }
      ],
      "name": "addVote",
      "outputs": [],
      "payable": false,
      "stateMutability": "nonpayable",
      "type": "function"
    },
    {
      "constant": false,
      "inputs": [],
      "name": "winner",
      "outputs": [
        {
          "internalType": "string",
          "name": "",
          "type": "string"
        }
      ],
      "payable": false,
      "stateMutability": "nonpayable",
      "type": "function"
    }
  ],
  "bytecode": "0x60806040523480156200001157600080fd5b50620000c46040518060400160405280600781526020017f48617272697368000000000000000000000000000000000000000000000000008152506040518060400160405280600881526020017f4e657720596f726b0000000000000000000000000000000000000000000000008152506040518060400160405280600881526020017f64656d6f637261740000000000000000000000000000000000000000000000008152506200017c60201b60201c565b620001766040518060400160405280600881526020017f506f6f6a697468610000000000000000000000000000000000000000000000008152506040518060400160405280600781526020017f466c6f72696461000000000000000000000000000000000000000000000000008152506040518060400160405280600881526020017f72657075626c69630000000000000000000000000000000000000000000000008152506200017c60201b60201c565b6200052c565b600280541015620004785760016040518060a00160405280600260008154809291906001019190505581526020016040518060400160405280600781526020017f486172726973680000000000000000000000000000000000000000000000000081525081526020016040518060400160405280600881526020017f4e657720596f726b00000000000000000000000000000000000000000000000081525081526020016040518060400160405280600881526020017f44656d6f637261740000000000000000000000000000000000000000000000008152508152602001600081525090806001815401808255809150509060018203906000526020600020906005020160009091929091909150600082015181600001556020820151816001019080519060200190620002b39291906200047d565b506040820151816002019080519060200190620002d29291906200047d565b506060820151816003019080519060200190620002f19291906200047d565b506080820151816004015550505060016040518060a00160405280600260008154809291906001019190505581526020016040518060400160405280600781526020017f506f6a697468610000000000000000000000000000000000000000000000000081525081526020016040518060400160405280600781526020017f466c6f726964610000000000000000000000000000000000000000000000000081525081526020016040518060400160405280600881526020017f52657075626c696300000000000000000000000000000000000000000000000081525081526020016000815250908060018154018082558091505090600182039060005260206000209060050201600090919290919091506000820151816000015560208201518160010190805190602001906200042b9291906200047d565b5060408201518160020190805190602001906200044a9291906200047d565b506060820151816003019080519060200190620004699291906200047d565b50608082015181600401555050505b505050565b828054600181600116156101000203166002900490600052602060002090601f016020900481019282601f10620004c057805160ff1916838001178555620004f1565b82800160010185558215620004f1579182015b82811115620004f0578251825591602001919060010190620004d3565b5b50905062000500919062000504565b5090565b6200052991905b80821115620005255760008160009055506001016200050b565b5090565b90565b610e79806200053c6000396000f3fe608060405234801561001057600080fd5b506004361061007d5760003560e01c80633477ee2e1161005b5780633477ee2e14610175578063a3ec138d14610302578063ad71f8dc1461035e578063dfbf53ae146105475761007d565b80630121b93f146100825780630383badc146101295780632d35a8a214610157575b600080fd5b6100ae6004803603602081101561009857600080fd5b81019080803590602001909291905050506105ca565b6040518080602001828103825283818151815260200191508051906020019080838360005b838110156100ee5780820151818401526020810190506100d3565b50505050905090810190601f16801561011b5780820380516001836020036101000a031916815260200191505b509250505060405180910390f35b6101556004803603602081101561013f57600080fd5b8101908080359060200190929190505050610717565b005b61015f610748565b6040518082815260200191505060405180910390f35b6101a16004803603602081101561018b57600080fd5b810190808035906020019092919050505061074e565b60405180868152602001806020018060200180602001858152602001848103845288818151815260200191508051906020019080838360005b838110156101f55780820151818401526020810190506101da565b50505050905090810190601f1680156102225780820380516001836020036101000a031916815260200191505b50848103835287818151815260200191508051906020019080838360005b8381101561025b578082015181840152602081019050610240565b50505050905090810190601f1680156102885780820380516001836020036101000a031916815260200191505b50848103825286818151815260200191508051906020019080838360005b838110156102c15780820151818401526020810190506102a6565b50505050905090810190601f1680156102ee5780820380516001836020036101000a031916815260200191505b509850505050505050505060405180910390f35b6103446004803603602081101561031857600080fd5b81019080803573ffffffffffffffffffffffffffffffffffffffff169060200190929190505050610959565b604051808215151515815260200191505060405180910390f35b6105456004803603606081101561037457600080fd5b810190808035906020019064010000000081111561039157600080fd5b8201836020820111156103a357600080fd5b803590602001918460018302840111640100000000831117156103c557600080fd5b91908080601f016020809104026020016040519081016040528093929190818152602001838380828437600081840152601f19601f8201169050808301925050505050505091929192908035906020019064010000000081111561042857600080fd5b82018360208201111561043a57600080fd5b8035906020019184600183028401116401000000008311171561045c57600080fd5b91908080601f016020809104026020016040519081016040528093929190818152602001838380828437600081840152601f19601f820116905080830192505050505050509192919290803590602001906401000000008111156104bf57600080fd5b8201836020820111156104d157600080fd5b803590602001918460018302840111640100000000831117156104f357600080fd5b91908080601f016020809104026020016040519081016040528093929190818152602001838380828437600081840152601f19601f820116905080830192505050505050509192919290505050610979565b005b61054f610c6d565b6040518080602001828103825283818151815260200191508051906020019080838360005b8381101561058f578082015181840152602081019050610574565b50505050905090810190601f1680156105bc5780820380516001836020036101000a031916815260200191505b509250505060405180910390f35b606060016000803373ffffffffffffffffffffffffffffffffffffffff1673ffffffffffffffffffffffffffffffffffffffff16815260200190815260200160002060006101000a81548160ff02191690831515021790555061062c82610717565b817ffff3c900d938d21d0990d786e819f29b8d05c1ef587b462b939609625b684b1660405160405180910390a26001828154811061066657fe5b90600052602060002090600502016001018054600181600116156101000203166002900480601f01602080910402602001604051908101604052809291908181526020018280546001816001161561010002031660029004801561070b5780601f106106e05761010080835404028352916020019161070b565b820191906000526020600020905b8154815290600101906020018083116106ee57829003601f168201915b50505050509050919050565b6001818154811061072457fe5b90600052602060002090600502016004016000815480929190600101919050555050565b60025481565b6001818154811061075b57fe5b9060005260206000209060050201600091509050806000015490806001018054600181600116156101000203166002900480601f01602080910402602001604051908101604052809291908181526020018280546001816001161561010002031660029004801561080d5780601f106107e25761010080835404028352916020019161080d565b820191906000526020600020905b8154815290600101906020018083116107f057829003601f168201915b505050505090806002018054600181600116156101000203166002900480601f0160208091040260200160405190810160405280929190818152602001828054600181600116156101000203166002900480156108ab5780601f10610880576101008083540402835291602001916108ab565b820191906000526020600020905b81548152906001019060200180831161088e57829003601f168201915b505050505090806003018054600181600116156101000203166002900480601f0160208091040260200160405190810160405280929190818152602001828054600181600116156101000203166002900480156109495780601f1061091e57610100808354040283529160200191610949565b820191906000526020600020905b81548152906001019060200180831161092c57829003601f168201915b5050505050908060040154905085565b60006020528060005260406000206000915054906101000a900460ff1681565b600280541015610c685760016040518060a00160405280600260008154809291906001019190505581526020016040518060400160405280600781526020017f486172726973680000000000000000000000000000000000000000000000000081525081526020016040518060400160405280600881526020017f4e657720596f726b00000000000000000000000000000000000000000000000081525081526020016040518060400160405280600881526020017f44656d6f637261740000000000000000000000000000000000000000000000008152508152602001600081525090806001815401808255809150509060018203906000526020600020906005020160009091929091909150600082015181600001556020820151816001019080519060200190610aad929190610d9f565b506040820151816002019080519060200190610aca929190610d9f565b506060820151816003019080519060200190610ae7929190610d9f565b506080820151816004015550505060016040518060a00160405280600260008154809291906001019190505581526020016040518060400160405280600781526020017f506f6a697468610000000000000000000000000000000000000000000000000081525081526020016040518060400160405280600781526020017f466c6f726964610000000000000000000000000000000000000000000000000081525081526020016040518060400160405280600881526020017f52657075626c69630000000000000000000000000000000000000000000000008152508152602001600081525090806001815401808255809150509060018203906000526020600020906005020160009091929091909150600082015181600001556020820151816001019080519060200190610c1f929190610d9f565b506040820151816002019080519060200190610c3c929190610d9f565b506060820151816003019080519060200190610c59929190610d9f565b50608082015181600401555050505b505050565b606080600080905060008090505b600180549050811015610d96578160018281548110610c9657fe5b9060005260206000209060050201600401541115610d895760018181548110610cbb57fe5b906000526020600020906005020160040154915060018181548110610cdc57fe5b90600052602060002090600502016001018054600181600116156101000203166002900480601f016020809104026020016040519081016040528092919081815260200182805460018160011615610100020316600290048015610d815780601f10610d5657610100808354040283529160200191610d81565b820191906000526020600020905b815481529060010190602001808311610d6457829003601f168201915b505050505092505b8080600101915050610c7b565b50819250505090565b828054600181600116156101000203166002900490600052602060002090601f016020900481019282601f10610de057805160ff1916838001178555610e0e565b82800160010185558215610e0e579182015b82811115610e0d578251825591602001919060010190610df2565b5b509050610e1b9190610e1f565b5090565b610e4191905b80821115610e3d576000816000905550600101610e25565b5090565b9056fea265627a7a7231582086f3810b3bc79cebb3bd16f96035120737432521f122e8062ad1efa992fa938264736f6c63430005100032",
  "source": "pragma solidity ^0.5.16;\n\ncontract final_proj {\n    struct Candidate {\n        uint id;\n        string name;\n        string constituency;\n        string party;\n        uint voteCount;\n    }\n\n    mapping(address => bool) public voters;\n\n    Candidate[] public candidates;\n    uint public candidatesCount;\n\n    event votedEvent (\n        uint indexed _candidateId\n    );\n\n    constructor() public {\n        addCandidate(\"Harrish\",\"New York\",\"democrat\");\n        addCandidate(\"Poojitha\",\"Florida\",\"republic\");\n    }\n\n    function addCandidate (string memory _name,string memory _cons,string memory _party) public {\n\n        if(candidatesCount<2){\n        candidates.push(Candidate({\n            id: candidatesCount++,\n            name: \"Harrish\",\n            constituency: \"New York\",\n            party: \"Democrat\",\n            voteCount: 0\n\n        }));\n            candidates.push(Candidate({\n            id: candidatesCount++,\n            name: \"Pojitha\",\n            constituency: \"Florida\",\n            party: \"Republic\",\n            voteCount: 0\n\n        }));\n\n\n        }\n\n\n    }\n\n    function vote (uint id) public returns (string memory){\n\n\n        voters[msg.sender] = true;\n\n        addVote(id);\n\n        emit votedEvent(id);\n\n        return candidates[id].name;\n    }\n\n\n    function addVote(uint id) public {\n        candidates[id].voteCount++;\n\n    }\n\n\n    function winner() public returns(string memory){\n        string memory current_highest;\n        uint largest = 0; \n\n         for(uint i = 0; i < candidates.length; i++){\n            if(candidates[i].voteCount > largest) {\n                largest = candidates[i].voteCount;\n                current_highest = candidates[i].name;\n            } \n        }\n\n        return current_highest;\n\n    }\n}",
  "sourcePath": "/Users/harrishmurugesan/Desktop/BNC_FINAL_SUBMIT/contracts/final_proj.sol",
  "compiler": {
    "name": "solc",
    "version": "0.5.16+commit.9c3226ce.Emscripten.clang"
  },
  "schemaVersion": "3.3.2",
  "updatedAt": "2020-12-17T17:57:57.720Z",
  "networkType": "ethereum",
  "devdoc": {
    "methods": {}
  },
  "userdoc": {
    "methods": {}
  }
}